{
	"contracts/ExampleContractCall.sol": {
		"ContractTwo": {
			"abi": [
				{
					"inputs": [
						{
							"internalType": "address",
							"name": "_contractOne",
							"type": "address"
						}
					],
					"name": "depositOnContractOne",
					"outputs": [],
					"stateMutability": "nonpayable",
					"type": "function"
				},
				{
					"stateMutability": "payable",
					"type": "receive"
				}
			],
			"devdoc": {
				"kind": "dev",
				"methods": {},
				"version": 1
			},
			"evm": {
				"assembly": "    /* \"contracts/ExampleContractCall.sol\":306:563  contract ContractTwo {... */\n  mstore(0x40, 0x80)\n  callvalue\n  dup1\n  iszero\n  tag_1\n  jumpi\n  revert(0x00, 0x00)\ntag_1:\n  pop\n  dataSize(sub_0)\n  dup1\n  dataOffset(sub_0)\n  0x00\n  codecopy\n  0x00\n  return\nstop\n\nsub_0: assembly {\n        /* \"contracts/ExampleContractCall.sol\":306:563  contract ContractTwo {... */\n      mstore(0x40, 0x80)\n      jumpi(tag_1, lt(calldatasize, 0x04))\n      shr(0xe0, calldataload(0x00))\n      dup1\n      0xac1dddca\n      eq\n      tag_3\n      jumpi\n      jump(tag_2)\n    tag_1:\n      jumpi(tag_2, calldatasize)\n      stop\n    tag_2:\n      revert(0x00, 0x00)\n        /* \"contracts/ExampleContractCall.sol\":372:560  function depositOnContractOne(address _contractOne) public {... */\n    tag_3:\n      callvalue\n      dup1\n      iszero\n      tag_6\n      jumpi\n      revert(0x00, 0x00)\n    tag_6:\n      pop\n      tag_7\n      0x04\n      dup1\n      calldatasize\n      sub\n      dup2\n      add\n      swap1\n      tag_8\n      swap2\n      swap1\n      tag_9\n      jump\t// in\n    tag_8:\n      tag_10\n      jump\t// in\n    tag_7:\n      stop\n    tag_10:\n        /* \"contracts/ExampleContractCall.sol\":443:454  bool sucess */\n      0x00\n        /* \"contracts/ExampleContractCall.sol\":459:471  _contractOne */\n      dup2\n        /* \"contracts/ExampleContractCall.sol\":459:476  _contractOne.call */\n      0xffffffffffffffffffffffffffffffffffffffff\n      and\n        /* \"contracts/ExampleContractCall.sol\":484:486  10 */\n      0x0a\n        /* \"contracts/ExampleContractCall.sol\":493:499  100000 */\n      0x0186a0\n        /* \"contracts/ExampleContractCall.sol\":459:504  _contractOne.call{value: 10, gas: 100000}(\"\") */\n      swap1\n      mload(0x40)\n      tag_12\n      swap1\n      tag_13\n      jump\t// in\n    tag_12:\n      0x00\n      mload(0x40)\n      dup1\n      dup4\n      sub\n      dup2\n      dup6\n      dup9\n      dup9\n      call\n      swap4\n      pop\n      pop\n      pop\n      pop\n      returndatasize\n      dup1\n      0x00\n      dup2\n      eq\n      tag_16\n      jumpi\n      mload(0x40)\n      swap2\n      pop\n      and(add(returndatasize, 0x3f), not(0x1f))\n      dup3\n      add\n      0x40\n      mstore\n      returndatasize\n      dup3\n      mstore\n      returndatasize\n      0x00\n      0x20\n      dup5\n      add\n      returndatacopy\n      jump(tag_15)\n    tag_16:\n      0x60\n      swap2\n      pop\n    tag_15:\n      pop\n        /* \"contracts/ExampleContractCall.sol\":442:504  (bool sucess,) = _contractOne.call{value: 10, gas: 100000}(\"\") */\n      pop\n      swap1\n      pop\n        /* \"contracts/ExampleContractCall.sol\":523:529  sucess */\n      dup1\n        /* \"contracts/ExampleContractCall.sol\":515:552  require(sucess, \"Failed to transcat\") */\n      tag_17\n      jumpi\n      mload(0x40)\n      0x08c379a000000000000000000000000000000000000000000000000000000000\n      dup2\n      mstore\n      0x04\n      add\n      tag_18\n      swap1\n      tag_19\n      jump\t// in\n    tag_18:\n      mload(0x40)\n      dup1\n      swap2\n      sub\n      swap1\n      revert\n    tag_17:\n        /* \"contracts/ExampleContractCall.sol\":431:560  {... */\n      pop\n        /* \"contracts/ExampleContractCall.sol\":372:560  function depositOnContractOne(address _contractOne) public {... */\n      pop\n      jump\t// out\n        /* \"#utility.yul\":88:205   */\n    tag_21:\n        /* \"#utility.yul\":197:198   */\n      0x00\n        /* \"#utility.yul\":194:195   */\n      0x00\n        /* \"#utility.yul\":187:199   */\n      revert\n        /* \"#utility.yul\":334:460   */\n    tag_23:\n        /* \"#utility.yul\":371:378   */\n      0x00\n        /* \"#utility.yul\":411:453   */\n      0xffffffffffffffffffffffffffffffffffffffff\n        /* \"#utility.yul\":404:409   */\n      dup3\n        /* \"#utility.yul\":400:454   */\n      and\n        /* \"#utility.yul\":389:454   */\n      swap1\n      pop\n        /* \"#utility.yul\":334:460   */\n      swap2\n      swap1\n      pop\n      jump\t// out\n        /* \"#utility.yul\":466:562   */\n    tag_24:\n        /* \"#utility.yul\":503:510   */\n      0x00\n        /* \"#utility.yul\":532:556   */\n      tag_39\n        /* \"#utility.yul\":550:555   */\n      dup3\n        /* \"#utility.yul\":532:556   */\n      tag_23\n      jump\t// in\n    tag_39:\n        /* \"#utility.yul\":521:556   */\n      swap1\n      pop\n        /* \"#utility.yul\":466:562   */\n      swap2\n      swap1\n      pop\n      jump\t// out\n        /* \"#utility.yul\":568:690   */\n    tag_25:\n        /* \"#utility.yul\":641:665   */\n      tag_41\n        /* \"#utility.yul\":659:664   */\n      dup2\n        /* \"#utility.yul\":641:665   */\n      tag_24\n      jump\t// in\n    tag_41:\n        /* \"#utility.yul\":634:639   */\n      dup2\n        /* \"#utility.yul\":631:666   */\n      eq\n        /* \"#utility.yul\":621:684   */\n      tag_42\n      jumpi\n        /* \"#utility.yul\":680:681   */\n      0x00\n        /* \"#utility.yul\":677:678   */\n      0x00\n        /* \"#utility.yul\":670:682   */\n      revert\n        /* \"#utility.yul\":621:684   */\n    tag_42:\n        /* \"#utility.yul\":568:690   */\n      pop\n      jump\t// out\n        /* \"#utility.yul\":696:835   */\n    tag_26:\n        /* \"#utility.yul\":742:747   */\n      0x00\n        /* \"#utility.yul\":780:786   */\n      dup2\n        /* \"#utility.yul\":767:787   */\n      calldataload\n        /* \"#utility.yul\":758:787   */\n      swap1\n      pop\n        /* \"#utility.yul\":796:829   */\n      tag_44\n        /* \"#utility.yul\":823:828   */\n      dup2\n        /* \"#utility.yul\":796:829   */\n      tag_25\n      jump\t// in\n    tag_44:\n        /* \"#utility.yul\":696:835   */\n      swap3\n      swap2\n      pop\n      pop\n      jump\t// out\n        /* \"#utility.yul\":841:1170   */\n    tag_9:\n        /* \"#utility.yul\":900:906   */\n      0x00\n        /* \"#utility.yul\":949:951   */\n      0x20\n        /* \"#utility.yul\":937:946   */\n      dup3\n        /* \"#utility.yul\":928:935   */\n      dup5\n        /* \"#utility.yul\":924:947   */\n      sub\n        /* \"#utility.yul\":920:952   */\n      slt\n        /* \"#utility.yul\":917:1036   */\n      iszero\n      tag_46\n      jumpi\n        /* \"#utility.yul\":955:1034   */\n      tag_47\n      tag_21\n      jump\t// in\n    tag_47:\n        /* \"#utility.yul\":917:1036   */\n    tag_46:\n        /* \"#utility.yul\":1075:1076   */\n      0x00\n        /* \"#utility.yul\":1100:1153   */\n      tag_48\n        /* \"#utility.yul\":1145:1152   */\n      dup5\n        /* \"#utility.yul\":1136:1142   */\n      dup3\n        /* \"#utility.yul\":1125:1134   */\n      dup6\n        /* \"#utility.yul\":1121:1143   */\n      add\n        /* \"#utility.yul\":1100:1153   */\n      tag_26\n      jump\t// in\n    tag_48:\n        /* \"#utility.yul\":1090:1153   */\n      swap2\n      pop\n        /* \"#utility.yul\":1046:1163   */\n      pop\n        /* \"#utility.yul\":841:1170   */\n      swap3\n      swap2\n      pop\n      pop\n      jump\t// out\n        /* \"#utility.yul\":1176:1323   */\n    tag_27:\n        /* \"#utility.yul\":1277:1288   */\n      0x00\n        /* \"#utility.yul\":1314:1317   */\n      dup2\n        /* \"#utility.yul\":1299:1317   */\n      swap1\n      pop\n        /* \"#utility.yul\":1176:1323   */\n      swap3\n      swap2\n      pop\n      pop\n      jump\t// out\n        /* \"#utility.yul\":1329:1443   */\n    tag_28:\n      pop\n      jump\t// out\n        /* \"#utility.yul\":1449:1847   */\n    tag_29:\n        /* \"#utility.yul\":1608:1611   */\n      0x00\n        /* \"#utility.yul\":1629:1712   */\n      tag_52\n        /* \"#utility.yul\":1710:1711   */\n      0x00\n        /* \"#utility.yul\":1705:1708   */\n      dup4\n        /* \"#utility.yul\":1629:1712   */\n      tag_27\n      jump\t// in\n    tag_52:\n        /* \"#utility.yul\":1622:1712   */\n      swap2\n      pop\n        /* \"#utility.yul\":1721:1814   */\n      tag_53\n        /* \"#utility.yul\":1810:1813   */\n      dup3\n        /* \"#utility.yul\":1721:1814   */\n      tag_28\n      jump\t// in\n    tag_53:\n        /* \"#utility.yul\":1839:1840   */\n      0x00\n        /* \"#utility.yul\":1834:1837   */\n      dup3\n        /* \"#utility.yul\":1830:1841   */\n      add\n        /* \"#utility.yul\":1823:1841   */\n      swap1\n      pop\n        /* \"#utility.yul\":1449:1847   */\n      swap2\n      swap1\n      pop\n      jump\t// out\n        /* \"#utility.yul\":1853:2232   */\n    tag_13:\n        /* \"#utility.yul\":2037:2040   */\n      0x00\n        /* \"#utility.yul\":2059:2206   */\n      tag_55\n        /* \"#utility.yul\":2202:2205   */\n      dup3\n        /* \"#utility.yul\":2059:2206   */\n      tag_29\n      jump\t// in\n    tag_55:\n        /* \"#utility.yul\":2052:2206   */\n      swap2\n      pop\n        /* \"#utility.yul\":2223:2226   */\n      dup2\n        /* \"#utility.yul\":2216:2226   */\n      swap1\n      pop\n        /* \"#utility.yul\":1853:2232   */\n      swap2\n      swap1\n      pop\n      jump\t// out\n        /* \"#utility.yul\":2238:2407   */\n    tag_30:\n        /* \"#utility.yul\":2322:2333   */\n      0x00\n        /* \"#utility.yul\":2356:2362   */\n      dup3\n        /* \"#utility.yul\":2351:2354   */\n      dup3\n        /* \"#utility.yul\":2344:2363   */\n      mstore\n        /* \"#utility.yul\":2396:2400   */\n      0x20\n        /* \"#utility.yul\":2391:2394   */\n      dup3\n        /* \"#utility.yul\":2387:2401   */\n      add\n        /* \"#utility.yul\":2372:2401   */\n      swap1\n      pop\n        /* \"#utility.yul\":2238:2407   */\n      swap3\n      swap2\n      pop\n      pop\n      jump\t// out\n        /* \"#utility.yul\":2413:2581   */\n    tag_31:\n        /* \"#utility.yul\":2553:2573   */\n      0x4661696c656420746f207472616e736361740000000000000000000000000000\n        /* \"#utility.yul\":2549:2550   */\n      0x00\n        /* \"#utility.yul\":2541:2547   */\n      dup3\n        /* \"#utility.yul\":2537:2551   */\n      add\n        /* \"#utility.yul\":2530:2574   */\n      mstore\n        /* \"#utility.yul\":2413:2581   */\n      pop\n      jump\t// out\n        /* \"#utility.yul\":2587:2953   */\n    tag_32:\n        /* \"#utility.yul\":2729:2732   */\n      0x00\n        /* \"#utility.yul\":2750:2817   */\n      tag_59\n        /* \"#utility.yul\":2814:2816   */\n      0x12\n        /* \"#utility.yul\":2809:2812   */\n      dup4\n        /* \"#utility.yul\":2750:2817   */\n      tag_30\n      jump\t// in\n    tag_59:\n        /* \"#utility.yul\":2743:2817   */\n      swap2\n      pop\n        /* \"#utility.yul\":2826:2919   */\n      tag_60\n        /* \"#utility.yul\":2915:2918   */\n      dup3\n        /* \"#utility.yul\":2826:2919   */\n      tag_31\n      jump\t// in\n    tag_60:\n        /* \"#utility.yul\":2944:2946   */\n      0x20\n        /* \"#utility.yul\":2939:2942   */\n      dup3\n        /* \"#utility.yul\":2935:2947   */\n      add\n        /* \"#utility.yul\":2928:2947   */\n      swap1\n      pop\n        /* \"#utility.yul\":2587:2953   */\n      swap2\n      swap1\n      pop\n      jump\t// out\n        /* \"#utility.yul\":2959:3378   */\n    tag_19:\n        /* \"#utility.yul\":3125:3129   */\n      0x00\n        /* \"#utility.yul\":3163:3165   */\n      0x20\n        /* \"#utility.yul\":3152:3161   */\n      dup3\n        /* \"#utility.yul\":3148:3166   */\n      add\n        /* \"#utility.yul\":3140:3166   */\n      swap1\n      pop\n        /* \"#utility.yul\":3212:3221   */\n      dup2\n        /* \"#utility.yul\":3206:3210   */\n      dup2\n        /* \"#utility.yul\":3202:3222   */\n      sub\n        /* \"#utility.yul\":3198:3199   */\n      0x00\n        /* \"#utility.yul\":3187:3196   */\n      dup4\n        /* \"#utility.yul\":3183:3200   */\n      add\n        /* \"#utility.yul\":3176:3223   */\n      mstore\n        /* \"#utility.yul\":3240:3371   */\n      tag_62\n        /* \"#utility.yul\":3366:3370   */\n      dup2\n        /* \"#utility.yul\":3240:3371   */\n      tag_32\n      jump\t// in\n    tag_62:\n        /* \"#utility.yul\":3232:3371   */\n      swap1\n      pop\n        /* \"#utility.yul\":2959:3378   */\n      swap2\n      swap1\n      pop\n      jump\t// out\n\n    auxdata: 0xa2646970667358221220cf7e633cdcc5f639a4b0f783d89aa0bca74fd2033df33c2c193c866b67854c5264736f6c634300081e0033\n}\n",
				"bytecode": {
					"linkReferences": {},
					"object": "6080604052348015600e575f5ffd5b5061027f8061001c5f395ff3fe608060405260043610610021575f3560e01c8063ac1dddca1461002c57610028565b3661002857005b5f5ffd5b348015610037575f5ffd5b50610052600480360381019061004d9190610165565b610054565b005b5f8173ffffffffffffffffffffffffffffffffffffffff16600a620186a09060405161007f906101bd565b5f60405180830381858888f193505050503d805f81146100ba576040519150601f19603f3d011682016040523d82523d5f602084013e6100bf565b606091505b5050905080610103576040517f08c379a00000000000000000000000000000000000000000000000000000000081526004016100fa9061022b565b60405180910390fd5b5050565b5f5ffd5b5f73ffffffffffffffffffffffffffffffffffffffff82169050919050565b5f6101348261010b565b9050919050565b6101448161012a565b811461014e575f5ffd5b50565b5f8135905061015f8161013b565b92915050565b5f6020828403121561017a57610179610107565b5b5f61018784828501610151565b91505092915050565b5f81905092915050565b50565b5f6101a85f83610190565b91506101b38261019a565b5f82019050919050565b5f6101c78261019d565b9150819050919050565b5f82825260208201905092915050565b7f4661696c656420746f207472616e7363617400000000000000000000000000005f82015250565b5f6102156012836101d1565b9150610220826101e1565b602082019050919050565b5f6020820190508181035f83015261024281610209565b905091905056fea2646970667358221220cf7e633cdcc5f639a4b0f783d89aa0bca74fd2033df33c2c193c866b67854c5264736f6c634300081e0033",
					"opcodes": "PUSH1 0x80 PUSH1 0x40 MSTORE CALLVALUE DUP1 ISZERO PUSH1 0xE JUMPI PUSH0 PUSH0 REVERT JUMPDEST POP PUSH2 0x27F DUP1 PUSH2 0x1C PUSH0 CODECOPY PUSH0 RETURN INVALID PUSH1 0x80 PUSH1 0x40 MSTORE PUSH1 0x4 CALLDATASIZE LT PUSH2 0x21 JUMPI PUSH0 CALLDATALOAD PUSH1 0xE0 SHR DUP1 PUSH4 0xAC1DDDCA EQ PUSH2 0x2C JUMPI PUSH2 0x28 JUMP JUMPDEST CALLDATASIZE PUSH2 0x28 JUMPI STOP JUMPDEST PUSH0 PUSH0 REVERT JUMPDEST CALLVALUE DUP1 ISZERO PUSH2 0x37 JUMPI PUSH0 PUSH0 REVERT JUMPDEST POP PUSH2 0x52 PUSH1 0x4 DUP1 CALLDATASIZE SUB DUP2 ADD SWAP1 PUSH2 0x4D SWAP2 SWAP1 PUSH2 0x165 JUMP JUMPDEST PUSH2 0x54 JUMP JUMPDEST STOP JUMPDEST PUSH0 DUP2 PUSH20 0xFFFFFFFFFFFFFFFFFFFFFFFFFFFFFFFFFFFFFFFF AND PUSH1 0xA PUSH3 0x186A0 SWAP1 PUSH1 0x40 MLOAD PUSH2 0x7F SWAP1 PUSH2 0x1BD JUMP JUMPDEST PUSH0 PUSH1 0x40 MLOAD DUP1 DUP4 SUB DUP2 DUP6 DUP9 DUP9 CALL SWAP4 POP POP POP POP RETURNDATASIZE DUP1 PUSH0 DUP2 EQ PUSH2 0xBA JUMPI PUSH1 0x40 MLOAD SWAP2 POP PUSH1 0x1F NOT PUSH1 0x3F RETURNDATASIZE ADD AND DUP3 ADD PUSH1 0x40 MSTORE RETURNDATASIZE DUP3 MSTORE RETURNDATASIZE PUSH0 PUSH1 0x20 DUP5 ADD RETURNDATACOPY PUSH2 0xBF JUMP JUMPDEST PUSH1 0x60 SWAP2 POP JUMPDEST POP POP SWAP1 POP DUP1 PUSH2 0x103 JUMPI PUSH1 0x40 MLOAD PUSH32 0x8C379A000000000000000000000000000000000000000000000000000000000 DUP2 MSTORE PUSH1 0x4 ADD PUSH2 0xFA SWAP1 PUSH2 0x22B JUMP JUMPDEST PUSH1 0x40 MLOAD DUP1 SWAP2 SUB SWAP1 REVERT JUMPDEST POP POP JUMP JUMPDEST PUSH0 PUSH0 REVERT JUMPDEST PUSH0 PUSH20 0xFFFFFFFFFFFFFFFFFFFFFFFFFFFFFFFFFFFFFFFF DUP3 AND SWAP1 POP SWAP2 SWAP1 POP JUMP JUMPDEST PUSH0 PUSH2 0x134 DUP3 PUSH2 0x10B JUMP JUMPDEST SWAP1 POP SWAP2 SWAP1 POP JUMP JUMPDEST PUSH2 0x144 DUP2 PUSH2 0x12A JUMP JUMPDEST DUP2 EQ PUSH2 0x14E JUMPI PUSH0 PUSH0 REVERT JUMPDEST POP JUMP JUMPDEST PUSH0 DUP2 CALLDATALOAD SWAP1 POP PUSH2 0x15F DUP2 PUSH2 0x13B JUMP JUMPDEST SWAP3 SWAP2 POP POP JUMP JUMPDEST PUSH0 PUSH1 0x20 DUP3 DUP5 SUB SLT ISZERO PUSH2 0x17A JUMPI PUSH2 0x179 PUSH2 0x107 JUMP JUMPDEST JUMPDEST PUSH0 PUSH2 0x187 DUP5 DUP3 DUP6 ADD PUSH2 0x151 JUMP JUMPDEST SWAP2 POP POP SWAP3 SWAP2 POP POP JUMP JUMPDEST PUSH0 DUP2 SWAP1 POP SWAP3 SWAP2 POP POP JUMP JUMPDEST POP JUMP JUMPDEST PUSH0 PUSH2 0x1A8 PUSH0 DUP4 PUSH2 0x190 JUMP JUMPDEST SWAP2 POP PUSH2 0x1B3 DUP3 PUSH2 0x19A JUMP JUMPDEST PUSH0 DUP3 ADD SWAP1 POP SWAP2 SWAP1 POP JUMP JUMPDEST PUSH0 PUSH2 0x1C7 DUP3 PUSH2 0x19D JUMP JUMPDEST SWAP2 POP DUP2 SWAP1 POP SWAP2 SWAP1 POP JUMP JUMPDEST PUSH0 DUP3 DUP3 MSTORE PUSH1 0x20 DUP3 ADD SWAP1 POP SWAP3 SWAP2 POP POP JUMP JUMPDEST PUSH32 0x4661696C656420746F207472616E736361740000000000000000000000000000 PUSH0 DUP3 ADD MSTORE POP JUMP JUMPDEST PUSH0 PUSH2 0x215 PUSH1 0x12 DUP4 PUSH2 0x1D1 JUMP JUMPDEST SWAP2 POP PUSH2 0x220 DUP3 PUSH2 0x1E1 JUMP JUMPDEST PUSH1 0x20 DUP3 ADD SWAP1 POP SWAP2 SWAP1 POP JUMP JUMPDEST PUSH0 PUSH1 0x20 DUP3 ADD SWAP1 POP DUP2 DUP2 SUB PUSH0 DUP4 ADD MSTORE PUSH2 0x242 DUP2 PUSH2 0x209 JUMP JUMPDEST SWAP1 POP SWAP2 SWAP1 POP JUMP INVALID LOG2 PUSH5 0x6970667358 0x22 SLT KECCAK256 0xCF PUSH31 0x633CDCC5F639A4B0F783D89AA0BCA74FD2033DF33C2C193C866B67854C5264 PUSH20 0x6F6C634300081E00330000000000000000000000 "
				},
				"gasEstimates": {
					"creation": {
						"codeDepositCost": "127800",
						"executionCost": "169",
						"totalCost": "127969"
					},
					"external": {
						"depositOnContractOne(address)": "infinite"
					}
				},
				"methodIdentifiers": {
					"depositOnContractOne(address)": "ac1dddca"
				}
			},
			"storageLayout": {
				"storage": [],
				"types": null
			},
			"userdoc": {
				"kind": "user",
				"methods": {},
				"version": 1
			}
		}
	}
}